{
  "_format": "hh-sol-artifact-1",
  "contractName": "TokenizedBallot",
  "sourceName": "contracts/TokenizedBallot.sol",
  "abi": [
    {
      "inputs": [
        {
          "internalType": "bytes32[]",
          "name": "proposalNames",
          "type": "bytes32[]"
        },
        {
          "internalType": "address",
          "name": "_tokenContract",
          "type": "address"
        },
        {
          "internalType": "uint256",
          "name": "blocksQuantity",
          "type": "uint256"
        }
      ],
      "stateMutability": "nonpayable",
      "type": "constructor"
    },
    {
      "inputs": [],
      "name": "listProposal",
      "outputs": [
        {
          "internalType": "bytes32[]",
          "name": "",
          "type": "bytes32[]"
        }
      ],
      "stateMutability": "view",
      "type": "function"
    },
    {
      "inputs": [
        {
          "internalType": "uint256",
          "name": "",
          "type": "uint256"
        }
      ],
      "name": "proposals",
      "outputs": [
        {
          "internalType": "bytes32",
          "name": "name",
          "type": "bytes32"
        },
        {
          "internalType": "uint256",
          "name": "voteCount",
          "type": "uint256"
        }
      ],
      "stateMutability": "view",
      "type": "function"
    },
    {
      "inputs": [],
      "name": "targetBlockNumber",
      "outputs": [
        {
          "internalType": "uint256",
          "name": "",
          "type": "uint256"
        }
      ],
      "stateMutability": "view",
      "type": "function"
    },
    {
      "inputs": [],
      "name": "tokenContract",
      "outputs": [
        {
          "internalType": "contract IMyVotingToken",
          "name": "",
          "type": "address"
        }
      ],
      "stateMutability": "view",
      "type": "function"
    },
    {
      "inputs": [
        {
          "internalType": "uint256",
          "name": "proposal",
          "type": "uint256"
        },
        {
          "internalType": "uint256",
          "name": "amount",
          "type": "uint256"
        }
      ],
      "name": "vote",
      "outputs": [],
      "stateMutability": "nonpayable",
      "type": "function"
    },
    {
      "inputs": [
        {
          "internalType": "address",
          "name": "account",
          "type": "address"
        }
      ],
      "name": "votingPower",
      "outputs": [
        {
          "internalType": "uint256",
          "name": "",
          "type": "uint256"
        }
      ],
      "stateMutability": "view",
      "type": "function"
    },
    {
      "inputs": [
        {
          "internalType": "address",
          "name": "",
          "type": "address"
        }
      ],
      "name": "votingPowerSpent",
      "outputs": [
        {
          "internalType": "uint256",
          "name": "",
          "type": "uint256"
        }
      ],
      "stateMutability": "view",
      "type": "function"
    },
    {
      "inputs": [],
      "name": "winnerName",
      "outputs": [
        {
          "internalType": "bytes32",
          "name": "winnerName_",
          "type": "bytes32"
        }
      ],
      "stateMutability": "view",
      "type": "function"
    },
    {
      "inputs": [],
      "name": "winningProposal",
      "outputs": [
        {
          "internalType": "uint256",
          "name": "winningProposal_",
          "type": "uint256"
        }
      ],
      "stateMutability": "view",
      "type": "function"
    }
  ],
  "bytecode": "0x60806040523480156200001157600080fd5b506040516200112138038062001121833981810160405281019062000037919062000390565b816000806101000a81548173ffffffffffffffffffffffffffffffffffffffff021916908373ffffffffffffffffffffffffffffffffffffffff16021790555080436200008591906200043a565b60028190555060005b8351811015620001225760016040518060400160405280868481518110620000bb57620000ba62000475565b5b60200260200101518152602001600081525090806001815401808255809150506001900390600052602060002090600202016000909190919091506000820151816000015560208201518160010155505080806200011990620004a4565b9150506200008e565b50505050620004f1565b6000604051905090565b600080fd5b600080fd5b600080fd5b6000601f19601f8301169050919050565b7f4e487b7100000000000000000000000000000000000000000000000000000000600052604160045260246000fd5b620001908262000145565b810181811067ffffffffffffffff82111715620001b257620001b162000156565b5b80604052505050565b6000620001c76200012c565b9050620001d5828262000185565b919050565b600067ffffffffffffffff821115620001f857620001f762000156565b5b602082029050602081019050919050565b600080fd5b6000819050919050565b62000223816200020e565b81146200022f57600080fd5b50565b600081519050620002438162000218565b92915050565b6000620002606200025a84620001da565b620001bb565b9050808382526020820190506020840283018581111562000286576200028562000209565b5b835b81811015620002b357806200029e888262000232565b84526020840193505060208101905062000288565b5050509392505050565b600082601f830112620002d557620002d462000140565b5b8151620002e784826020860162000249565b91505092915050565b600073ffffffffffffffffffffffffffffffffffffffff82169050919050565b60006200031d82620002f0565b9050919050565b6200032f8162000310565b81146200033b57600080fd5b50565b6000815190506200034f8162000324565b92915050565b6000819050919050565b6200036a8162000355565b81146200037657600080fd5b50565b6000815190506200038a816200035f565b92915050565b600080600060608486031215620003ac57620003ab62000136565b5b600084015167ffffffffffffffff811115620003cd57620003cc6200013b565b5b620003db86828701620002bd565b9350506020620003ee868287016200033e565b9250506040620004018682870162000379565b9150509250925092565b7f4e487b7100000000000000000000000000000000000000000000000000000000600052601160045260246000fd5b6000620004478262000355565b9150620004548362000355565b92508282019050808211156200046f576200046e6200040b565b5b92915050565b7f4e487b7100000000000000000000000000000000000000000000000000000000600052603260045260246000fd5b6000620004b18262000355565b91507fffffffffffffffffffffffffffffffffffffffffffffffffffffffffffffffff8203620004e657620004e56200040b565b5b600182019050919050565b610c2080620005016000396000f3fe608060405234801561001057600080fd5b50600436106100935760003560e01c8063a720035111610066578063a720035114610123578063b24b274814610153578063b384abef14610171578063c07473f61461018d578063e2ba53f0146101bd57610093565b8063013cf08b146100985780632a8cd29e146100c957806355a373d6146100e7578063609ff1bd14610105575b600080fd5b6100b260048036038101906100ad9190610625565b6101db565b6040516100c092919061067a565b60405180910390f35b6100d161020f565b6040516100de91906106a3565b60405180910390f35b6100ef610215565b6040516100fc919061073d565b60405180910390f35b61010d610239565b60405161011a91906106a3565b60405180910390f35b61013d60048036038101906101389190610796565b6102c1565b60405161014a91906106a3565b60405180910390f35b61015b6102d9565b6040516101689190610881565b60405180910390f35b61018b600480360381019061018691906108a3565b61039d565b005b6101a760048036038101906101a29190610796565b6104c5565b6040516101b491906106a3565b60405180910390f35b6101c56105b6565b6040516101d291906108e3565b60405180910390f35b600181815481106101eb57600080fd5b90600052602060002090600202016000915090508060000154908060010154905082565b60025481565b60008054906101000a900473ffffffffffffffffffffffffffffffffffffffff1681565b6000806000905060005b6001805490508110156102bc578160018281548110610265576102646108fe565b5b90600052602060002090600202016001015411156102a95760018181548110610291576102906108fe565b5b90600052602060002090600202016001015491508092505b80806102b49061095c565b915050610243565b505090565b60036020528060005260406000206000915090505481565b6060600060018054905067ffffffffffffffff8111156102fc576102fb6109a4565b5b60405190808252806020026020018201604052801561032a5781602001602082028036833780820191505090505b50905060005b6001805490508110156103955760018181548110610351576103506108fe565b5b906000526020600020906002020160000154828281518110610376576103756108fe565b5b602002602001018181525050808061038d9061095c565b915050610330565b508091505090565b60018054905082106103e4576040517f08c379a00000000000000000000000000000000000000000000000000000000081526004016103db90610a56565b60405180910390fd5b806103ee336104c5565b101561042f576040517f08c379a000000000000000000000000000000000000000000000000000000000815260040161042690610ae8565b60405180910390fd5b80600360003373ffffffffffffffffffffffffffffffffffffffff1673ffffffffffffffffffffffffffffffffffffffff168152602001908152602001600020600082825461047e9190610b08565b92505081905550806001838154811061049a576104996108fe565b5b906000526020600020906002020160010160008282546104ba9190610b08565b925050819055505050565b6000600360008373ffffffffffffffffffffffffffffffffffffffff1673ffffffffffffffffffffffffffffffffffffffff1681526020019081526020016000205460008054906101000a900473ffffffffffffffffffffffffffffffffffffffff1673ffffffffffffffffffffffffffffffffffffffff16633a46b1a8846002546040518363ffffffff1660e01b8152600401610564929190610b4b565b602060405180830381865afa158015610581573d6000803e3d6000fd5b505050506040513d601f19601f820116820180604052508101906105a59190610b89565b6105af9190610bb6565b9050919050565b600060016105c2610239565b815481106105d3576105d26108fe565b5b906000526020600020906002020160000154905090565b600080fd5b6000819050919050565b610602816105ef565b811461060d57600080fd5b50565b60008135905061061f816105f9565b92915050565b60006020828403121561063b5761063a6105ea565b5b600061064984828501610610565b91505092915050565b6000819050919050565b61066581610652565b82525050565b610674816105ef565b82525050565b600060408201905061068f600083018561065c565b61069c602083018461066b565b9392505050565b60006020820190506106b8600083018461066b565b92915050565b600073ffffffffffffffffffffffffffffffffffffffff82169050919050565b6000819050919050565b60006107036106fe6106f9846106be565b6106de565b6106be565b9050919050565b6000610715826106e8565b9050919050565b60006107278261070a565b9050919050565b6107378161071c565b82525050565b6000602082019050610752600083018461072e565b92915050565b6000610763826106be565b9050919050565b61077381610758565b811461077e57600080fd5b50565b6000813590506107908161076a565b92915050565b6000602082840312156107ac576107ab6105ea565b5b60006107ba84828501610781565b91505092915050565b600081519050919050565b600082825260208201905092915050565b6000819050602082019050919050565b6107f881610652565b82525050565b600061080a83836107ef565b60208301905092915050565b6000602082019050919050565b600061082e826107c3565b61083881856107ce565b9350610843836107df565b8060005b8381101561087457815161085b88826107fe565b975061086683610816565b925050600181019050610847565b5085935050505092915050565b6000602082019050818103600083015261089b8184610823565b905092915050565b600080604083850312156108ba576108b96105ea565b5b60006108c885828601610610565b92505060206108d985828601610610565b9150509250929050565b60006020820190506108f8600083018461065c565b92915050565b7f4e487b7100000000000000000000000000000000000000000000000000000000600052603260045260246000fd5b7f4e487b7100000000000000000000000000000000000000000000000000000000600052601160045260246000fd5b6000610967826105ef565b91507fffffffffffffffffffffffffffffffffffffffffffffffffffffffffffffffff82036109995761099861092d565b5b600182019050919050565b7f4e487b7100000000000000000000000000000000000000000000000000000000600052604160045260246000fd5b600082825260208201905092915050565b7f546f6b656e697a656442616c6c6f743a20696e76616c69642070726f706f736160008201527f6c00000000000000000000000000000000000000000000000000000000000000602082015250565b6000610a406021836109d3565b9150610a4b826109e4565b604082019050919050565b60006020820190508181036000830152610a6f81610a33565b9050919050565b7f596f75206861766520696e73756666696369656e7420766f74696e6720706f7760008201527f6572000000000000000000000000000000000000000000000000000000000000602082015250565b6000610ad26022836109d3565b9150610add82610a76565b604082019050919050565b60006020820190508181036000830152610b0181610ac5565b9050919050565b6000610b13826105ef565b9150610b1e836105ef565b9250828201905080821115610b3657610b3561092d565b5b92915050565b610b4581610758565b82525050565b6000604082019050610b606000830185610b3c565b610b6d602083018461066b565b9392505050565b600081519050610b83816105f9565b92915050565b600060208284031215610b9f57610b9e6105ea565b5b6000610bad84828501610b74565b91505092915050565b6000610bc1826105ef565b9150610bcc836105ef565b9250828203905081811115610be457610be361092d565b5b9291505056fea26469706673582212209dc6f224312d854494bbc68828bb19a7f0de0cc1253e791f098e75c0bb3dcd4664736f6c63430008120033",
  "linkReferences": {},
  "deployedLinkReferences": {}
}