{
  "_format": "hh-sol-artifact-1",
  "contractName": "TokenSale",
  "sourceName": "contracts/TokenSale.sol",
  "abi": [
    {
      "inputs": [
        {
          "internalType": "uint256",
          "name": "_ratio",
          "type": "uint256"
        },
        {
          "internalType": "uint256",
          "name": "_price",
          "type": "uint256"
        },
        {
          "internalType": "address",
          "name": "_paymentToken",
          "type": "address"
        },
        {
          "internalType": "address",
          "name": "_nftContract",
          "type": "address"
        }
      ],
      "stateMutability": "nonpayable",
      "type": "constructor"
    },
    {
      "anonymous": false,
      "inputs": [
        {
          "indexed": true,
          "internalType": "address",
          "name": "previousOwner",
          "type": "address"
        },
        {
          "indexed": true,
          "internalType": "address",
          "name": "newOwner",
          "type": "address"
        }
      ],
      "name": "OwnershipTransferred",
      "type": "event"
    },
    {
      "inputs": [
        {
          "internalType": "uint256",
          "name": "tokenId",
          "type": "uint256"
        }
      ],
      "name": "buyNFT",
      "outputs": [],
      "stateMutability": "nonpayable",
      "type": "function"
    },
    {
      "inputs": [],
      "name": "buyTokens",
      "outputs": [],
      "stateMutability": "payable",
      "type": "function"
    },
    {
      "inputs": [],
      "name": "nftContract",
      "outputs": [
        {
          "internalType": "contract MyERC721",
          "name": "",
          "type": "address"
        }
      ],
      "stateMutability": "view",
      "type": "function"
    },
    {
      "inputs": [],
      "name": "owner",
      "outputs": [
        {
          "internalType": "address",
          "name": "",
          "type": "address"
        }
      ],
      "stateMutability": "view",
      "type": "function"
    },
    {
      "inputs": [],
      "name": "paymentToken",
      "outputs": [
        {
          "internalType": "contract MyERC20",
          "name": "",
          "type": "address"
        }
      ],
      "stateMutability": "view",
      "type": "function"
    },
    {
      "inputs": [],
      "name": "price",
      "outputs": [
        {
          "internalType": "uint256",
          "name": "",
          "type": "uint256"
        }
      ],
      "stateMutability": "view",
      "type": "function"
    },
    {
      "inputs": [],
      "name": "ratio",
      "outputs": [
        {
          "internalType": "uint256",
          "name": "",
          "type": "uint256"
        }
      ],
      "stateMutability": "view",
      "type": "function"
    },
    {
      "inputs": [],
      "name": "renounceOwnership",
      "outputs": [],
      "stateMutability": "nonpayable",
      "type": "function"
    },
    {
      "inputs": [
        {
          "internalType": "uint256",
          "name": "amount",
          "type": "uint256"
        }
      ],
      "name": "returnTokens",
      "outputs": [],
      "stateMutability": "nonpayable",
      "type": "function"
    },
    {
      "inputs": [
        {
          "internalType": "address",
          "name": "newOwner",
          "type": "address"
        }
      ],
      "name": "transferOwnership",
      "outputs": [],
      "stateMutability": "nonpayable",
      "type": "function"
    },
    {
      "inputs": [
        {
          "internalType": "uint256",
          "name": "amount",
          "type": "uint256"
        }
      ],
      "name": "withdraw",
      "outputs": [],
      "stateMutability": "nonpayable",
      "type": "function"
    },
    {
      "inputs": [],
      "name": "withdrawableAmount",
      "outputs": [
        {
          "internalType": "uint256",
          "name": "",
          "type": "uint256"
        }
      ],
      "stateMutability": "view",
      "type": "function"
    }
  ],
  "bytecode": "0x60806040523480156200001157600080fd5b50604051620010b2380380620010b2833981810160405281019062000037919062000262565b620000576200004b620000f160201b60201c565b620000f960201b60201c565b836001819055508260028190555081600360006101000a81548173ffffffffffffffffffffffffffffffffffffffff021916908373ffffffffffffffffffffffffffffffffffffffff16021790555080600460006101000a81548173ffffffffffffffffffffffffffffffffffffffff021916908373ffffffffffffffffffffffffffffffffffffffff16021790555050505050620002d4565b600033905090565b60008060009054906101000a900473ffffffffffffffffffffffffffffffffffffffff169050816000806101000a81548173ffffffffffffffffffffffffffffffffffffffff021916908373ffffffffffffffffffffffffffffffffffffffff1602179055508173ffffffffffffffffffffffffffffffffffffffff168173ffffffffffffffffffffffffffffffffffffffff167f8be0079c531659141344cd1fd0a4f28419497f9722a3daafe3b4186f6b6457e060405160405180910390a35050565b600080fd5b6000819050919050565b620001d781620001c2565b8114620001e357600080fd5b50565b600081519050620001f781620001cc565b92915050565b600073ffffffffffffffffffffffffffffffffffffffff82169050919050565b60006200022a82620001fd565b9050919050565b6200023c816200021d565b81146200024857600080fd5b50565b6000815190506200025c8162000231565b92915050565b600080600080608085870312156200027f576200027e620001bd565b5b60006200028f87828801620001e6565b9450506020620002a287828801620001e6565b9350506040620002b5878288016200024b565b9250506060620002c8878288016200024b565b91505092959194509250565b610dce80620002e46000396000f3fe6080604052600436106100a75760003560e01c80638da5cb5b116100645780638da5cb5b14610194578063951303f5146101bf578063a035b1fe146101ea578063d0febe4c14610215578063d56d229d1461021f578063f2fde38b1461024a576100a7565b80632e1a7d4d146100ac5780633013ce29146100d55780633ae1786f1461010057806351ed828814610129578063715018a61461015257806371ca337d14610169575b600080fd5b3480156100b857600080fd5b506100d360048036038101906100ce91906108c9565b610273565b005b3480156100e157600080fd5b506100ea61033f565b6040516100f79190610975565b60405180910390f35b34801561010c57600080fd5b50610127600480360381019061012291906108c9565b610365565b005b34801561013557600080fd5b50610150600480360381019061014b91906108c9565b61044b565b005b34801561015e57600080fd5b506101676105a8565b005b34801561017557600080fd5b5061017e6105bc565b60405161018b919061099f565b60405180910390f35b3480156101a057600080fd5b506101a96105c2565b6040516101b691906109db565b60405180910390f35b3480156101cb57600080fd5b506101d46105eb565b6040516101e1919061099f565b60405180910390f35b3480156101f657600080fd5b506101ff6105f1565b60405161020c919061099f565b60405180910390f35b61021d6105f7565b005b34801561022b57600080fd5b5061023461069b565b6040516102419190610a17565b60405180910390f35b34801561025657600080fd5b50610271600480360381019061026c9190610a5e565b6106c1565b005b61027b610744565b806005600082825461028d9190610aba565b92505081905550600360009054906101000a900473ffffffffffffffffffffffffffffffffffffffff1673ffffffffffffffffffffffffffffffffffffffff1663a9059cbb6102da6105c2565b836040518363ffffffff1660e01b81526004016102f8929190610aee565b6020604051808303816000875af1158015610317573d6000803e3d6000fd5b505050506040513d601f19601f8201168201806040525081019061033b9190610b4f565b5050565b600360009054906101000a900473ffffffffffffffffffffffffffffffffffffffff1681565b600360009054906101000a900473ffffffffffffffffffffffffffffffffffffffff1673ffffffffffffffffffffffffffffffffffffffff166379cc679033836040518363ffffffff1660e01b81526004016103c2929190610aee565b600060405180830381600087803b1580156103dc57600080fd5b505af11580156103f0573d6000803e3d6000fd5b505050503373ffffffffffffffffffffffffffffffffffffffff166108fc6001548361041c9190610b7c565b9081150290604051600060405180830381858888f19350505050158015610447573d6000803e3d6000fd5b5050565b600360009054906101000a900473ffffffffffffffffffffffffffffffffffffffff1673ffffffffffffffffffffffffffffffffffffffff166323b872dd33306002546040518463ffffffff1660e01b81526004016104ac93929190610bbe565b6020604051808303816000875af11580156104cb573d6000803e3d6000fd5b505050506040513d601f19601f820116820180604052508101906104ef9190610b4f565b50600460009054906101000a900473ffffffffffffffffffffffffffffffffffffffff1673ffffffffffffffffffffffffffffffffffffffff1663a144819433836040518363ffffffff1660e01b815260040161054d929190610aee565b600060405180830381600087803b15801561056757600080fd5b505af115801561057b573d6000803e3d6000fd5b505050506002805461058d9190610c24565b6005600082825461059e9190610c55565b9250508190555050565b6105b0610744565b6105ba60006107c2565b565b60015481565b60008060009054906101000a900473ffffffffffffffffffffffffffffffffffffffff16905090565b60055481565b60025481565b6000600154346106079190610c24565b9050600360009054906101000a900473ffffffffffffffffffffffffffffffffffffffff1673ffffffffffffffffffffffffffffffffffffffff166340c10f1933836040518363ffffffff1660e01b8152600401610666929190610aee565b600060405180830381600087803b15801561068057600080fd5b505af1158015610694573d6000803e3d6000fd5b5050505050565b600460009054906101000a900473ffffffffffffffffffffffffffffffffffffffff1681565b6106c9610744565b600073ffffffffffffffffffffffffffffffffffffffff168173ffffffffffffffffffffffffffffffffffffffff1603610738576040517f08c379a000000000000000000000000000000000000000000000000000000000815260040161072f90610d0c565b60405180910390fd5b610741816107c2565b50565b61074c610886565b73ffffffffffffffffffffffffffffffffffffffff1661076a6105c2565b73ffffffffffffffffffffffffffffffffffffffff16146107c0576040517f08c379a00000000000000000000000000000000000000000000000000000000081526004016107b790610d78565b60405180910390fd5b565b60008060009054906101000a900473ffffffffffffffffffffffffffffffffffffffff169050816000806101000a81548173ffffffffffffffffffffffffffffffffffffffff021916908373ffffffffffffffffffffffffffffffffffffffff1602179055508173ffffffffffffffffffffffffffffffffffffffff168173ffffffffffffffffffffffffffffffffffffffff167f8be0079c531659141344cd1fd0a4f28419497f9722a3daafe3b4186f6b6457e060405160405180910390a35050565b600033905090565b600080fd5b6000819050919050565b6108a681610893565b81146108b157600080fd5b50565b6000813590506108c38161089d565b92915050565b6000602082840312156108df576108de61088e565b5b60006108ed848285016108b4565b91505092915050565b600073ffffffffffffffffffffffffffffffffffffffff82169050919050565b6000819050919050565b600061093b610936610931846108f6565b610916565b6108f6565b9050919050565b600061094d82610920565b9050919050565b600061095f82610942565b9050919050565b61096f81610954565b82525050565b600060208201905061098a6000830184610966565b92915050565b61099981610893565b82525050565b60006020820190506109b46000830184610990565b92915050565b60006109c5826108f6565b9050919050565b6109d5816109ba565b82525050565b60006020820190506109f060008301846109cc565b92915050565b6000610a0182610942565b9050919050565b610a11816109f6565b82525050565b6000602082019050610a2c6000830184610a08565b92915050565b610a3b816109ba565b8114610a4657600080fd5b50565b600081359050610a5881610a32565b92915050565b600060208284031215610a7457610a7361088e565b5b6000610a8284828501610a49565b91505092915050565b7f4e487b7100000000000000000000000000000000000000000000000000000000600052601160045260246000fd5b6000610ac582610893565b9150610ad083610893565b9250828203905081811115610ae857610ae7610a8b565b5b92915050565b6000604082019050610b0360008301856109cc565b610b106020830184610990565b9392505050565b60008115159050919050565b610b2c81610b17565b8114610b3757600080fd5b50565b600081519050610b4981610b23565b92915050565b600060208284031215610b6557610b6461088e565b5b6000610b7384828501610b3a565b91505092915050565b6000610b8782610893565b9150610b9283610893565b9250828202610ba081610893565b91508282048414831517610bb757610bb6610a8b565b5b5092915050565b6000606082019050610bd360008301866109cc565b610be060208301856109cc565b610bed6040830184610990565b949350505050565b7f4e487b7100000000000000000000000000000000000000000000000000000000600052601260045260246000fd5b6000610c2f82610893565b9150610c3a83610893565b925082610c4a57610c49610bf5565b5b828204905092915050565b6000610c6082610893565b9150610c6b83610893565b9250828201905080821115610c8357610c82610a8b565b5b92915050565b600082825260208201905092915050565b7f4f776e61626c653a206e6577206f776e657220697320746865207a65726f206160008201527f6464726573730000000000000000000000000000000000000000000000000000602082015250565b6000610cf6602683610c89565b9150610d0182610c9a565b604082019050919050565b60006020820190508181036000830152610d2581610ce9565b9050919050565b7f4f776e61626c653a2063616c6c6572206973206e6f7420746865206f776e6572600082015250565b6000610d62602083610c89565b9150610d6d82610d2c565b602082019050919050565b60006020820190508181036000830152610d9181610d55565b905091905056fea26469706673582212208e88ee3efb7f7198a25f39e7cbf73216ce008de0a530b511c2c4b6eba651a7aa64736f6c63430008120033",
  "linkReferences": {},
  "deployedLinkReferences": {}
}